{
  "contractName": "gambling",
  "abi": [
    {
      "constant": true,
      "inputs": [],
      "name": "winLose",
      "outputs": [
        {
          "name": "",
          "type": "int256"
        }
      ],
      "payable": false,
      "stateMutability": "view",
      "type": "function"
    },
    {
      "constant": true,
      "inputs": [],
      "name": "totalTokens",
      "outputs": [
        {
          "name": "",
          "type": "uint256"
        }
      ],
      "payable": false,
      "stateMutability": "view",
      "type": "function"
    },
    {
      "constant": true,
      "inputs": [],
      "name": "tokenPrice",
      "outputs": [
        {
          "name": "",
          "type": "uint256"
        }
      ],
      "payable": false,
      "stateMutability": "view",
      "type": "function"
    },
    {
      "constant": true,
      "inputs": [],
      "name": "boolWin",
      "outputs": [
        {
          "name": "",
          "type": "uint256"
        }
      ],
      "payable": false,
      "stateMutability": "view",
      "type": "function"
    },
    {
      "constant": true,
      "inputs": [],
      "name": "balanceTokens",
      "outputs": [
        {
          "name": "",
          "type": "uint256"
        }
      ],
      "payable": false,
      "stateMutability": "view",
      "type": "function"
    },
    {
      "inputs": [
        {
          "name": "tokens",
          "type": "uint256"
        },
        {
          "name": "pricePerToken",
          "type": "uint256"
        }
      ],
      "payable": false,
      "stateMutability": "nonpayable",
      "type": "constructor"
    },
    {
      "constant": false,
      "inputs": [
        {
          "name": "user",
          "type": "address"
        }
      ],
      "name": "GetPlayerTokens",
      "outputs": [
        {
          "name": "",
          "type": "uint256"
        }
      ],
      "payable": false,
      "stateMutability": "nonpayable",
      "type": "function"
    },
    {
      "constant": true,
      "inputs": [],
      "name": "rand",
      "outputs": [
        {
          "name": "",
          "type": "uint256"
        }
      ],
      "payable": false,
      "stateMutability": "view",
      "type": "function"
    },
    {
      "constant": false,
      "inputs": [
        {
          "name": "Bet",
          "type": "uint256"
        }
      ],
      "name": "Judge",
      "outputs": [
        {
          "name": "",
          "type": "bool"
        }
      ],
      "payable": false,
      "stateMutability": "nonpayable",
      "type": "function"
    },
    {
      "constant": false,
      "inputs": [],
      "name": "buy",
      "outputs": [
        {
          "name": "",
          "type": "uint256"
        }
      ],
      "payable": true,
      "stateMutability": "payable",
      "type": "function"
    },
    {
      "constant": true,
      "inputs": [],
      "name": "tokensSold",
      "outputs": [
        {
          "name": "",
          "type": "uint256"
        }
      ],
      "payable": false,
      "stateMutability": "view",
      "type": "function"
    },
    {
      "constant": true,
      "inputs": [],
      "name": "GetBalanceTokens",
      "outputs": [
        {
          "name": "",
          "type": "uint256"
        }
      ],
      "payable": false,
      "stateMutability": "view",
      "type": "function"
    },
    {
      "constant": true,
      "inputs": [],
      "name": "GetCurrenAddress",
      "outputs": [
        {
          "name": "",
          "type": "address"
        }
      ],
      "payable": false,
      "stateMutability": "view",
      "type": "function"
    },
    {
      "constant": false,
      "inputs": [],
      "name": "GetCurrenPlayerTokens",
      "outputs": [
        {
          "name": "",
          "type": "uint256"
        }
      ],
      "payable": false,
      "stateMutability": "nonpayable",
      "type": "function"
    },
    {
      "constant": true,
      "inputs": [],
      "name": "GetWinLose",
      "outputs": [
        {
          "name": "",
          "type": "int256"
        }
      ],
      "payable": false,
      "stateMutability": "view",
      "type": "function"
    },
    {
      "constant": false,
      "inputs": [],
      "name": "GetPlayerWinLose",
      "outputs": [
        {
          "name": "",
          "type": "int256"
        }
      ],
      "payable": false,
      "stateMutability": "nonpayable",
      "type": "function"
    },
    {
      "constant": false,
      "inputs": [],
      "name": "GetBuyRecord",
      "outputs": [
        {
          "name": "",
          "type": "uint256[]"
        }
      ],
      "payable": false,
      "stateMutability": "nonpayable",
      "type": "function"
    },
    {
      "constant": true,
      "inputs": [],
      "name": "GetBoolWin",
      "outputs": [
        {
          "name": "",
          "type": "uint256"
        }
      ],
      "payable": false,
      "stateMutability": "view",
      "type": "function"
    }
  ],
  "bytecode": "0x608060405234801561001057600080fd5b50604051604080610baa8339810180604052810190808051906020019092919080519060200190929190505050816000819055508160018190555080600381905550600060028190555060646004819055505050610b37806100736000396000f3006080604052600436106100f1576000357c0100000000000000000000000000000000000000000000000000000000900463ffffffff16806304bb76f0146100f657806310b2c7b31461013b578063152a4ba6146101665780631c6530c3146101915780631d88e81c146101e85780632661382e146102135780633b3dca761461023e578063518ab2a814610269578063659f26ee1461029457806376af3209146103005780637e1c0c091461032b5780637ff9b596146103565780638adfe71514610381578063a6f2ae3a146103ac578063bd0daee4146103ca578063cc1c59f914610421578063e4494a0f1461044c575b600080fd5b34801561010257600080fd5b5061012160048036038101908080359060200190929190505050610477565b604051808215151515815260200191505060405180910390f35b34801561014757600080fd5b50610150610535565b6040518082815260200191505060405180910390f35b34801561017257600080fd5b5061017b61053f565b6040518082815260200191505060405180910390f35b34801561019d57600080fd5b506101a6610545565b604051808273ffffffffffffffffffffffffffffffffffffffff1673ffffffffffffffffffffffffffffffffffffffff16815260200191505060405180910390f35b3480156101f457600080fd5b506101fd61054d565b6040518082815260200191505060405180910390f35b34801561021f57600080fd5b50610228610557565b6040518082815260200191505060405180910390f35b34801561024a57600080fd5b506102536105ab565b6040518082815260200191505060405180910390f35b34801561027557600080fd5b5061027e6105bf565b6040518082815260200191505060405180910390f35b3480156102a057600080fd5b506102a96105cd565b6040518080602001828103825283818151815260200191508051906020019060200280838360005b838110156102ec5780820151818401526020810190506102d1565b505050509050019250505060405180910390f35b34801561030c57600080fd5b50610315610670565b6040518082815260200191505060405180910390f35b34801561033757600080fd5b5061034061067a565b6040518082815260200191505060405180910390f35b34801561036257600080fd5b5061036b610680565b6040518082815260200191505060405180910390f35b34801561038d57600080fd5b50610396610686565b6040518082815260200191505060405180910390f35b6103b46106da565b6040518082815260200191505060405180910390f35b3480156103d657600080fd5b5061040b600480360381019080803573ffffffffffffffffffffffffffffffffffffffff1690602001909291905050506107db565b6040518082815260200191505060405180910390f35b34801561042d57600080fd5b50610436610831565b6040518082815260200191505060405180910390f35b34801561045857600080fd5b50610461610837565b6040518082815260200191505060405180910390f35b60006104823361083d565b50600154821115151561049457600080fd5b600560003373ffffffffffffffffffffffffffffffffffffffff1673ffffffffffffffffffffffffffffffffffffffff1681526020019081526020016000206001015482111515156104e557600080fd5b60016002428115156104f357fe5b06141561051757600160048190555061050e6001833361096d565b60019050610530565b600260048190555061052b6000833361096d565b600090505b919050565b6000600454905090565b60025481565b600033905090565b6000600154905090565b60006105623361083d565b50600560003373ffffffffffffffffffffffffffffffffffffffff1673ffffffffffffffffffffffffffffffffffffffff16815260200190815260200160002060010154905090565b60006003428115156105b957fe5b06905090565b600060015460005403905090565b6060600080339150600560008373ffffffffffffffffffffffffffffffffffffffff1673ffffffffffffffffffffffffffffffffffffffff16815260200190815260200160002060030190508080548060200260200160405190810160405280929190818152602001828054801561066457602002820191906000526020600020905b815481526020019060010190808311610650575b50505050509250505090565b6000600254905090565b60005481565b60035481565b60006106913361083d565b50600560003373ffffffffffffffffffffffffffffffffffffffff1673ffffffffffffffffffffffffffffffffffffffff16815260200190815260200160002060020154905090565b6000806106e63361083d565b50600354348115156106f457fe5b049050600154811115151561070857600080fd5b600560003373ffffffffffffffffffffffffffffffffffffffff1673ffffffffffffffffffffffffffffffffffffffff16815260200190815260200160002060030181908060018154018082558091505090600182039060005260206000200160009091929091909150555080600560003373ffffffffffffffffffffffffffffffffffffffff1673ffffffffffffffffffffffffffffffffffffffff16815260200190815260200160002060010160008282540192505081905550806001600082825403925050819055508091505090565b60006107e68261083d565b50600560008373ffffffffffffffffffffffffffffffffffffffff1673ffffffffffffffffffffffffffffffffffffffff168152602001908152602001600020600101549050919050565b60045481565b60015481565b6000806000600560008573ffffffffffffffffffffffffffffffffffffffff1673ffffffffffffffffffffffffffffffffffffffff16815260200190815260200160002060000160009054906101000a900473ffffffffffffffffffffffffffffffffffffffff1673ffffffffffffffffffffffffffffffffffffffff16141561096257600560008473ffffffffffffffffffffffffffffffffffffffff1673ffffffffffffffffffffffffffffffffffffffff1681526020019081526020016000209050828160000160006101000a81548173ffffffffffffffffffffffffffffffffffffffff021916908373ffffffffffffffffffffffffffffffffffffffff160217905550600081600101819055506000816002018190555060009150610967565b600191505b50919050565b6000829050600115158415151415610a44578260016000828254019250508190555082600560008473ffffffffffffffffffffffffffffffffffffffff1673ffffffffffffffffffffffffffffffffffffffff1681526020019081526020016000206001016000828254019250508190555080600560008473ffffffffffffffffffffffffffffffffffffffff1673ffffffffffffffffffffffffffffffffffffffff1681526020019081526020016000206002016000828254019250508190555080600260008282540392505081905550610b05565b8260016000828254039250508190555082600560008473ffffffffffffffffffffffffffffffffffffffff1673ffffffffffffffffffffffffffffffffffffffff1681526020019081526020016000206001016000828254039250508190555080600560008473ffffffffffffffffffffffffffffffffffffffff1673ffffffffffffffffffffffffffffffffffffffff16815260200190815260200160002060020160008282540392505081905550806002600082825401925050819055505b505050505600a165627a7a7230582085eec3d724de5fb5fb47f3cdd08880ad4bae3155bddce47f25872e629edc370b0029",
  "source": "pragma solidity ^0.4.18; \r\ncontract gambling{\r\n\r\n    //庄家游戏币总量\r\n    uint public totalTokens; \r\n    //庄家游戏币剩余数量\r\n    uint public balanceTokens;\r\n    //庄家输赢数量\r\n    int public winLose;\r\n    //货币单价\r\n    uint public tokenPrice;\r\n     //当前输赢\r\n    uint public boolWin;\r\n\r\n    //每一个用户\r\n    struct player {\r\n        address playerAddress;//用户地址\r\n        uint tokensBought;//用户持有的货币数\r\n        int winLose;  //玩家输数量\r\n        uint[] PerBuynum;  //每次购买的数量\r\n        //uint[] tokensUsedPerCandidate;//为每个候选人消耗的股票通证数量\r\n    }\r\n    mapping(address => player) allplayer; //一个用户的映射\r\n    //获取用户拥有得游戏币数\r\n    function GetPlayerTokens(address user) public returns(uint) {\r\n        checkisOldUser(user);\r\n        return allplayer[user].tokensBought;\r\n     \r\n    }\r\n    //对用户游戏结果改变用户拥有游戏券数量\r\n    function Update(bool result,uint num,address user) private {\r\n        //赢\r\n        int tmp = int(num);\r\n        if(result==true)\r\n        {\r\n            \r\n            balanceTokens += num;\r\n            allplayer[user].tokensBought+=num;\r\n            allplayer[user].winLose += tmp;\r\n            winLose -= tmp;\r\n        }\r\n        //输\r\n        else\r\n        {\r\n            balanceTokens -= num;\r\n            allplayer[user].tokensBought-=num; \r\n            allplayer[user].winLose -= tmp;\r\n            winLose += tmp;\r\n        }\r\n    }\r\n\r\n    //生成随机数\r\n    function rand() view public returns(uint256) {       \r\n        return  block.timestamp % 3;\r\n    } \r\n\r\n    //返回前端一个 输赢 结果\r\n    function Judge(uint Bet) public returns(bool){\r\n        //检查用户是否存在\r\n        checkisOldUser(msg.sender);\r\n        //下注量需要小于等于庄家拥有的游戏币量\r\n        require(Bet <= balanceTokens);\r\n        //下注量需要小于等于玩家拥有的游戏币量\r\n        require(Bet <= allplayer[msg.sender].tokensBought);\r\n        //玩家赢\r\n        if(block.timestamp % 2 == 1) \r\n        {\r\n            //是balanceTokens，不是totalTokens   \r\n            boolWin = 1;         \r\n            Update(true, Bet, msg.sender);\r\n            return  true;\r\n        }\r\n        //输\r\n        else \r\n        {\r\n            boolWin = 2;\r\n            Update(false, Bet, msg.sender);\r\n            return false;\r\n        }\r\n    }\r\n    //构造方法，初始化投票通证总数量、通证单价\r\n    constructor(uint tokens, uint pricePerToken) public {\r\n        totalTokens = tokens;\r\n        balanceTokens = tokens;\r\n        tokenPrice = pricePerToken;\r\n        winLose = 0;\r\n        boolWin = 100;\r\n    }\r\n\r\n    //购买投票通证，此方法使用 payable 修饰，在Sodility合约中，\r\n    //只有声明为payable的方法， 才可以接收支付的货币（msg.value值）\r\n    function buy() payable public returns (uint) {\r\n        checkisOldUser(msg.sender);\r\n        uint tokensToBuy = msg.value / tokenPrice;         //根据购买金额和通证单价，计算出购买量\r\n        require(tokensToBuy <= balanceTokens);             //继续执行合约需要确认合约的通证余额不小于购买量\r\n        allplayer[msg.sender].PerBuynum.push(tokensToBuy); //加入该用户每次购买的数量\r\n        allplayer[msg.sender].tokensBought += tokensToBuy;  //保存玩家货币\r\n        balanceTokens -= tokensToBuy;                      //将售出的货币数量从合约的余额中剔除\r\n        return tokensToBuy;                                //返回本次购买的货币数量\r\n    }\r\n    //函数获当前庄家买了多少票出去，用于变化前端页面值\r\n    function tokensSold() view public returns (uint) {\r\n        return totalTokens-balanceTokens;\r\n    }\r\n\r\n    function GetBalanceTokens() view public returns (uint){\r\n        return balanceTokens;\r\n    }\r\n\r\n // 检测该用户是否为新用户，如果不是生成该用户数据\r\n    function checkisOldUser (address user)private returns(bool) {\r\n        if(allplayer[user].playerAddress==0){\r\n             // 初始化用户 \r\n            player storage tmpUser = allplayer[user];         \r\n            tmpUser.playerAddress = user;\r\n            tmpUser.tokensBought = 0;\r\n            tmpUser.winLose = 0;\r\n            return false;\r\n        }\r\n        return true;\r\n    }\r\n    //获得当前用户地址\r\n    function GetCurrenAddress() view public returns (address){\r\n        return msg.sender;\r\n    }\r\n\r\n    //返回当前玩家的拥有的游戏币\r\n    function GetCurrenPlayerTokens() public returns (uint){\r\n        checkisOldUser(msg.sender);\r\n        return allplayer[msg.sender].tokensBought;\r\n    }\r\n    //庄家输赢数量\r\n    function GetWinLose() view public returns (int) {\r\n        return winLose;\r\n    }\r\n    //玩家输赢数量\r\n    function GetPlayerWinLose() public returns(int) {\r\n        checkisOldUser(msg.sender);\r\n        return allplayer[msg.sender].winLose;\r\n    }\r\n    //获取玩家购买记录\r\n    function GetBuyRecord() public returns(uint[]) {\r\n        address user = msg.sender;\r\n        uint[] storage tmp = allplayer[user].PerBuynum;\r\n        return tmp;\r\n\r\n    }\r\n\r\n    //获取输赢结果  赢 1   输 2\r\n    function GetBoolWin() view public returns(uint){\r\n        return boolWin;\r\n    }\r\n\r\n\r\n}",
  "sourcePath": "D:\\大学课程\\大三\\大三下\\区块链学习\\笔记\\gambling\\contracts\\gambling.sol",
  "compiler": {
    "name": "solc",
    "version": "0.4.24+commit.e67f0147.Emscripten.clang"
  },
  "schemaVersion": "2.0.0",
  "updatedAt": "2018-06-17T01:10:50.809Z"
}